{
  "transactions": [
    {
      "hash": "0x9bdbe0665885df9533a8b18405bc41c59dc4a8dfca866bf3302e4a69b5e70af4",
      "transactionType": "CALL",
      "contractName": null,
      "contractAddress": "0xb3d8dddc793f75a930313785e5d1612747093f25",
      "function": "setAttestor((address,string))",
      "arguments": [
        "(0xe02bD7a6c8aA401189AEBb5Bad755c2610940A73, \"https://primuslabs.xyz/\")"
      ],
      "transaction": {
        "from": "0xdb736b13e2f522dbe18b2015d0291e4b193d8ef6",
        "to": "0xb3d8dddc793f75a930313785e5d1612747093f25",
        "gas": "0x2b486",
        "value": "0x0",
        "input": "0x0ef779460000000000000000000000000000000000000000000000000000000000000020000000000000000000000000e02bd7a6c8aa401189aebb5bad755c2610940a730000000000000000000000000000000000000000000000000000000000000040000000000000000000000000000000000000000000000000000000000000001768747470733a2f2f7072696d75736c6162732e78797a2f000000000000000000",
        "nonce": "0x2d",
        "chainId": "0x4268"
      },
      "additionalContracts": [],
      "isFixedGasLimit": false
    }
  ],
  "receipts": [
    {
      "status": "0x1",
      "cumulativeGasUsed": "0x13eec6",
      "logs": [
        {
          "address": "0xb3d8dddc793f75a930313785e5d1612747093f25",
          "topics": [
            "0xd3072d0b885ff8b6111c1e2911e1c29a6a908152e39fe175e622a1e8b60f3606"
          ],
          "data": "0x000000000000000000000000e02bd7a6c8aa401189aebb5bad755c2610940a730000000000000000000000000000000000000000000000000000000000000040000000000000000000000000e02bd7a6c8aa401189aebb5bad755c2610940a730000000000000000000000000000000000000000000000000000000000000040000000000000000000000000000000000000000000000000000000000000001768747470733a2f2f7072696d75736c6162732e78797a2f000000000000000000",
          "blockHash": "0xaf3e3764084a07c88484daecdf0bcfbdb9855f174029cb148f60bb68de114fdb",
          "blockNumber": "0x2c7540",
          "transactionHash": "0x9bdbe0665885df9533a8b18405bc41c59dc4a8dfca866bf3302e4a69b5e70af4",
          "transactionIndex": "0xa",
          "logIndex": "0xe",
          "removed": false
        }
      ],
      "logsBloom": "0x00000000000000000000000000000020000000000000000000002000000000000000000000000000000000000000000000000000000000000000000000000000000000000000000000000000000000000000000000000000800000000000000000080000000000000000000000000000000000000000000000000000000000000000000000000000000000000000000000000000000000000000000000000000000000000000000000000000000000000000000000000000000000000000000000000000000100000000000000000000000000000000000000000000000000000000000000000040000000000000000000000000000000000000000000000000",
      "type": "0x2",
      "transactionHash": "0x9bdbe0665885df9533a8b18405bc41c59dc4a8dfca866bf3302e4a69b5e70af4",
      "transactionIndex": "0xa",
      "blockHash": "0xaf3e3764084a07c88484daecdf0bcfbdb9855f174029cb148f60bb68de114fdb",
      "blockNumber": "0x2c7540",
      "gasUsed": "0x1f560",
      "effectiveGasPrice": "0x4c3b44a",
      "from": "0xdb736b13e2f522dbe18b2015d0291e4b193d8ef6",
      "to": "0xb3d8dddc793f75a930313785e5d1612747093f25",
      "contractAddress": null
    }
  ],
  "libraries": [],
  "pending": [],
  "returns": {},
  "timestamp": 1733898748,
  "chain": 17000,
  "commit": "03f2e87"
}